S01B00006275696C642F6672656572746F735F73746D33322E6D6F74A5
S315080000000000022051300008E9080008F908000835
S315080000100109000809090008110900080000000084
S31508000020000000000000000000000000912C0008FD
S315080000301909000800000000D12E0008392F000811
S31508000040A1300008A1300008A1300008A13000083E
S31508000050A1300008A1300008A1300008A13000082E
S31508000060A1300008A1300008A1300008A13000081E
S31508000070A1300008A1300008A1300008A13000080E
S31508000080A1300008A1300008A1300008A1300008FE
S31508000090A1300008A1300008A1300008A1300008EE
S315080000A0A130000829090008A1300008A13000087D
S315080000B0A1300008A1300008A1300008A1300008CE
S315080000C0A1300008A1300008A1300008A1300008BE
S315080000D0A1300008A1300008A1300008A1300008AE
S315080000E0A1300008A1300008A1300008A13000089E
S315080000F0A1300008A1300008A1300008A13000088E
S31508000100A1300008A1300008A1300008A13000087D
S31508000110A1300008A1300008A1300008A13000086D
S31508000120A1300008A1300008A1300008A13000085D
S31508000130A1300008A1300008A1300008A13000084D
S31508000140A1300008A1300008A1300008A13000083D
S31508000150A1300008A1300008A1300008A13000082D
S31508000160A1300008A1300008A1300008A13000081D
S31508000170A1300008A1300008A130000800000000E6
S30D08000180A1300008A1300008B7
S3150800019010B5054C237833B9044B13B10448AFF3B3
S315080001A000800123237010BD3804002000000000E1
S315080001B0E0480008084B10B51BB108490848AFF3DA
S315080001C000800848036803B910BD074B002BFBD015
S315080001D0BDE81040184700BF000000003C0400209E
S315080001E0E04800083804002000000000844641EA80
S315080001F0000313F003036DD1403A41D351F8043B91
S3150800020040F8043B51F8043B40F8043B51F8043BE2
S3150800021040F8043B51F8043B40F8043B51F8043BD2
S3150800022040F8043B51F8043B40F8043B51F8043BC2
S3150800023040F8043B51F8043B40F8043B51F8043BB2
S3150800024040F8043B51F8043B40F8043B51F8043BA2
S3150800025040F8043B51F8043B40F8043B51F8043B92
S3150800026040F8043B51F8043B40F8043B51F8043B82
S3150800027040F8043B51F8043B40F8043B403ABDD2F1
S31508000280303211D351F8043B40F8043B51F8043B93
S3150800029040F8043B51F8043B40F8043B51F8043B52
S315080002A040F8043B103AEDD20C3205D351F8043B22
S315080002B040F8043B043AF9D2043208D0D2071CBFEE
S315080002C011F8013B00F8013B01D30B880380604617
S315080002D0704700BF082A13D38B078DD010F003038D
S315080002E08AD0C3F10403D21ADB071CBF11F8013BFD
S315080002F000F8013B80D331F8023B20F8023B7BE74C
S31508000300043AD9D3013A11F8013B00F8013BF9D276
S315080003100B7803704B7843708B7883706046704710
S3150800032053B94AB9002908BF00281CBF4FF0FF314E
S315080003304FF0FF3000F07EB9ADF1080C6DE904CE40
S3150800034000F006F8DDF804E0DDE9022304B07047A2
S315080003502DE9F0478C460E460446089D002B50D1E1
S315080003608A4217466CD9B2FA82FEBEF1000F0BD04C
S31508000370CEF1200420FA04F401FA0EF644EA060C3B
S3150800038002FA0EF700FA0EF44FEA1749220CBCFBE4
S31508000390F9F01FFA87F809FB10C642EA064600FB81
S315080003A008F3B34209D9F61900F1FF3280F0228129
S315080003B0B34240F21F8102383E44F61AA2B2B6FB97
S315080003C0F9F309FB136642EA064403FB08F8A0455D
S315080003D009D9E41903F1FF3280F00A81A04540F2F9
S315080003E00781023B3C44C8EB040443EA0040002171
S315080003F0002D62D024FA0EF400232C606B60BDE851
S31508000400F0878B4207D9002D55D0002185E8410099
S315080004100846BDE8F087B3FA83F1002940F09080DA
S31508000420B34202D3824200F2F880841A66EB0306CE
S315080004300120B446002D40D085E81010BDE8F087AD
S3150800044012B90127B7FBF2F7B7FA87FEBEF1000F1C
S3150800045035D1F31B4FEA17481FFA87FC0121B3FB76
S31508000460F8F0220C08FB103642EA06460CFB00F3AD
S31508000470B34207D9F61900F1FF3202D2B34200F2AD
S31508000480CE801046F61AA2B2B6FBF8F308FB13663E
S3150800049042EA06440CFB03FCA44507D9E41903F118
S315080004A0FF3202D2A44500F2B5801346CCEB040411
S315080004B043EA00409CE729462846BDE8F087CEF186
S315080004C0200106FA0EF307FA0EF720FA01F94FEAA9
S315080004D01748CE4049EA0309B6FBF8FA4FEA194429
S315080004E008FB1A661FFA87FC44EA06430AFB0CF265
S315080004F09A4200FA0EF40AD9DB190AF1FF3180F0A4
S3150800050087809A4240F28480AAF1020A3B449B1AE9
S315080005101FFA89F9B3FBF8F108FB113349EA0343DB
S3150800052001FB0CF69E4207D9DB1901F1FF326BD2AB
S315080005309E4269D902393B449B1B41EA0A418EE730
S31508000540C1F1200E22FA0EF48B40234320FA0EF74F
S3150800055006FA01F44FEA134C26FA0EF63C43B6FBAC
S31508000560FCF9270C0CFB19661FFA83F847EA0646BE
S3150800057009FB08F7B74202FA01F200FA01FA08D9AC
S31508000580F61809F1FF3041D2B7423FD9A9F102095D
S315080005901E44F61BA0B2B6FBFCF40CFB146640EA3C
S315080005A0064704FB08F8B84507D9FF1804F1FF30D9
S315080005B028D2B84526D9023C1F4444EA0940C8EB6C
S315080005C00707A0FB02894F4544464E4614D329D057
S315080005D065B3BAEB040367EB060707FA0EFECB40D2
S315080005E0CF404EEA030385E888000021BDE8F0877E
S315080005F01346F8E61046E0E6B8EB020469EB030694
S315080006000138E5E70446D8E7114695E78146C0E78D
S315080006108A467CE7023B3C4448E708460AE7023834
S315080006203E442FE7C245E7D33E46D1E72946BDE813
S31508000630F08700BF704700BF80B500AF03F00EFC1F
S3150800064000F016F800F072F802F04EF9054A00219B
S31508000650054802F0B3F90246044B1A6002F078F92D
S31508000660FEE700BF1C4900089D0700085C4D0020F6
S3150800067080B594B000AF07F1200330220021184658
S3150800068004F06AF807F10C0300221A605A609A60AF
S31508000690DA601A610023BB60224A224B1B6C43F0C6
S315080006A0805313641F4B1B6C03F08053BB60BB68FD
S315080006B000237B601C4A1C4B1B6843F48043136071
S315080006C0194B1B6803F480437B607B6802233B62FB
S315080006D00123FB6210233B630023BB6307F120035E
S315080006E0184602F0DFFC0346002B01D000F070F834
S315080006F00F23FB6000233B6100237B610023BB6162
S315080007000023FB6107F10C030021184602F038FFAD
S315080007100346002B01D000F05BF800BF5037BD46FA
S3150800072080BD00BF003802400070004080B586B02A
S3150800073000AF3B1D00221A605A609A60DA601A619F
S3150800074000233B60134A134B1B6B43F001031363EF
S31508000750104B1B6B03F001033B603B6800224021F2
S315080007600D4803F07FFA002280210B4803F07AFA3D
S31508000770C0237B600123BB600023FB6000233B6131
S315080007803B1D1946044803F0D3F800BF1837BD4689
S3150800079080BD00BF003802400000024080B582B02C
S315080007A000AF7860012002F0AFF9FBE780B582B0B0
S315080007B000AF78607B681B68044A934201D103F056
S315080007C06FFB00BF0837BD4680BD00BF0000014073
S315080007D080B400AF00BFBD465DF8047B704700BF1C
S315080007E080B582B000AF00237B60124A114B5B6C68
S315080007F043F4804353640F4B5B6C03F480437B6084
S315080008007B6800233B600B4A0A4B1B6C43F0805302
S315080008101364084B1B6C03F080533B603B68002253
S315080008200F216FF0010003F0EFFA00BF0837BD464D
S3150800083080BD00BF0038024080B58CB000AF78603C
S315080008400023FB620023BB6200227968192003F0AB
S31508000850DBFA192003F0F4FA0023FB601E4A1E4B4C
S315080008605B6C43F0010353641B4B5B6C03F00103A1
S31508000870FB60FB6807F1100207F1140311461846DE
S3150800088003F024F803F00EF8F862FB6A134AA2FB99
S3150800089003239B0C013BBB62114B124A1A60104B97
S315080008A040F2E732DA600E4ABB6A53600C4B00220C
S315080008B01A610B4B00229A60094803F011FB0346A4
S315080008C0002B04D1064803F041FB034600E0012350
S315080008D018463037BD4680BD0038024083DE1B43CC
S315080008E0604D00200000014080B400AF00BFBD4647
S315080008F05DF8047B704700BF80B400AFFEE700BF19
S3150800090080B400AFFEE700BF80B400AFFEE700BFCB
S3150800091080B400AFFEE700BF80B400AF00BFBD469D
S315080009205DF8047B704700BF80B500AF024803F04E
S3150800093031FB00BF80BD00BF604D002080B400AF12
S31508000940084A084BD3F8883043F47003C2F8883055
S31508000950044B4FF000629A6000BFBD465DF8047B09
S31508000960704700BF00ED00E080B483B000AF786048
S315080009707B6803F108027B685A607B684FF0FF3298
S315080009809A607B6803F108027B68DA607B6803F18A
S3150800099008027B681A617B6800221A6000BF0C3760
S315080009A0BD465DF8047B704780B483B000AF7860BD
S315080009B07B6800221A6100BF0C37BD465DF8047BD0
S315080009C0704700BF80B485B000AF786039607B6837
S315080009D05B68FB603B68FA685A60FB689A683B6824
S315080009E09A60FB689B683A685A60FB683A689A603E
S315080009F03B687A681A617B681B685A1C7B681A60B0
S31508000A0000BF1437BD465DF8047B704780B485B0D7
S31508000A1000AF786039603B681B68BB60BB68B3F1A0
S31508000A20FF3F03D17B681B69FB600CE07B680833DA
S31508000A30FB6002E0FB685B68FB60FB685B681A6842
S31508000A40BB689A42F6D9FB685A683B685A603B68A5
S31508000A505B683A689A603B68FA689A60FB683A6825
S31508000A605A603B687A681A617B681B685A1C7B68FF
S31508000A701A6000BF1437BD465DF8047B704700BF97
S31508000A8080B485B000AF78607B681B69FB607B68C3
S31508000A905B687A6892689A607B689B687A6852682D
S31508000AA05A60FB685A687B689A4203D17B689A68E1
S31508000AB0FB685A607B6800221A61FB681B685A1E2D
S31508000AC0FB681A60FB681B6818461437BD465DF854
S31508000AD0047B704780B584B000AF786039607B6866
S31508000AE0FB60FB68002B09D14FF0500383F3118894
S31508000AF0BFF36F8FBFF34F8FBB60FEE702F08EF92F
S31508000B00FB681A68FB68DB6BF968096C01FB03F381
S31508000B101A44FB689A60FB6800229A63FB681A68A5
S31508000B20FB685A60FB681A68FB68DB6B013BF9686F
S31508000B30096C01FB03F31A44FB68DA60FB68FF22C1
S31508000B4083F84420FB68FF2283F845203B68002B86
S31508000B5014D1FB681B69002B1AD0FB6810331846A2
S31508000B6001F0E0F80346002B12D00D4B4FF08052EF
S31508000B701A60BFF34F8FBFF36F8F09E0FB6810331E
S31508000B801846FFF7F1FEFB6824331846FFF7ECFE1C
S31508000B9002F072F9012318461037BD4680BD00BF22
S31508000BA004ED00E080B58EB002AFF860B9607A60F7
S31508000BB03B60FB68002B09D14FF0500383F3118883
S31508000BC0BFF36F8FBFF34F8FBB61FEE73B68002B08
S31508000BD009D14FF0500383F31188BFF36F8FBFF32A
S31508000BE04F8FFB61FEE77B68002B02D0BB68002BAA
S31508000BF001D0012300E00023002B09D14FF0500358
S31508000C0083F31188BFF36F8FBFF34F8F3B62FEE705
S31508000C107B68002B02D1BB68002B01D1012300E0C1
S31508000C200023002B09D14FF0500383F31188BFF33B
S31508000C306F8FBFF34F8F7B62FEE750237B617B6923
S31508000C40502B09D04FF0500383F31188BFF36F8FF1
S31508000C50BFF34F8FBB62FEE77B693B68FB62FB6AAB
S31508000C60002B0DD0FB6A012283F8462097F838201E
S31508000C70FB6A009313467A68B968F86800F006F8C4
S31508000C80FB6A18463037BD4680BD00BF80B584B0C4
S31508000C9000AFF860B9607A60FB70BB68002B03D1BF
S31508000CA0BB69BA691A6002E0BB697A681A60BB69EF
S31508000CB0FA68DA63BB69BA681A640121B869FFF78A
S31508000CC009FFBB69FA7883F84C2000BF1037BD4688
S31508000CD080BD00BF80B58EB000AFF860B9607A609D
S31508000CE03B6000237B63FB683B633B6B002B09D1AE
S31508000CF04FF0500383F31188BFF36F8FBFF34F8F05
S31508000D00FB61FEE7BB68002B03D13B6B1B6C002B1A
S31508000D1001D1012300E00023002B09D14FF0500335
S31508000D2083F31188BFF36F8FBFF34F8F3B62FEE7E4
S31508000D303B68022B03D13B6BDB6B012B01D10123F3
S31508000D4000E00023002B09D14FF0500383F31188EC
S31508000D50BFF36F8FBFF34F8F7B62FEE701F098F901
S31508000D600346002B02D17B68002B01D1012300E04A
S31508000D700023002B09D14FF0500383F31188BFF3EA
S31508000D806F8FBFF34F8FBB62FEE702F047F83B6BEE
S31508000D909A6B3B6BDB6B9A4202D33B68022B29D1D9
S31508000DA03A68B968386B00F0FFF9F8623B6B5B6A22
S31508000DB0002B10D03B6B2433184600F0B3FF0346D4
S31508000DC0002B13D03F4B4FF080521A60BFF34F8F62
S31508000DD0BFF36F8F0AE0FB6A002B07D0394B4FF041
S31508000DE080521A60BFF34F8FBFF36F8F02F044F83B
S31508000DF0012363E07B68002B03D102F03DF8002352
S31508000E005CE07B6B002B06D107F11403184600F053
S31508000E10EBFF01237B6302F02FF800F067FD01F07A
S31508000E20FDFF3B6B93F844305BB2B3F1FF3F03D150
S31508000E303B6B002283F844203B6B93F845305BB24A
S31508000E40B3F1FF3F03D13B6B002283F8452002F044
S31508000E5013F83A1D07F114031146184600F0DAFF95
S31508000E600346002B24D1386B00F096FA0346002B74
S31508000E7018D03B6B10337A681146184600F004FF09
S31508000E80386B00F021FA00F03FFD0346002B7FF493
S31508000E907CAF0C4B4FF080521A60BFF34F8FBFF3F5
S31508000EA06F8F72E7386B00F00FFA00F02DFD6CE7D4
S31508000EB0386B00F009FA00F027FD0023184638378A
S31508000EC0BD4680BD04ED00E080B58EB000AFF86089
S31508000ED0B9607A603B60FB683B633B6B002B09D1CA
S31508000EE04FF0500383F31188BFF36F8FBFF34F8F13
S31508000EF07B61FEE7BB68002B03D13B6B1B6C002BA9
S31508000F0001D1012300E00023002B09D14FF0500343
S31508000F1083F31188BFF36F8FBFF34F8FBB61FEE773
S31508000F203B68022B03D13B6BDB6B012B01D1012301
S31508000F3000E00023002B09D14FF0500383F31188FA
S31508000F40BFF36F8FBFF34F8FFB61FEE702F042F8E6
S31508000F50EFF311824FF0500383F31188BFF36F8FBD
S31508000F60BFF34F8F3A623B613B6ABB623B6B9A6B3E
S31508000F703B6BDB6B9A4202D33B68022B2CD13B6B53
S31508000F8093F8453087F827303A68B968386B00F027
S31508000F900BF997F92730B3F1FF3F12D13B6B5B6A28
S31508000FA0002B16D03B6B2433184600F0BBFE0346D5
S31508000FB0002B0ED07B68002B0BD07B6801221A60B1
S31508000FC007E097F827300133DBB25AB23B6B83F858
S31508000FD0452001237B6301E000237B63BB6AFB6238
S31508000FE0FB6A83F311887B6B18463837BD4680BD8C
S31508000FF080B58CB000AFF860B9607A600023FB62F8
S31508001000FB68BB62BB6A002B09D14FF0500383F320
S315080010101188BFF36F8FBFF34F8FBB61FEE7BB68C5
S31508001020002B03D1BB6A1B6C002B01D1012300E006
S315080010300023002B09D14FF0500383F31188BFF327
S315080010406F8FBFF34F8FFB61FEE701F021F8034670
S31508001050002B02D17B68002B01D1012300E000237D
S31508001060002B09D14FF0500383F31188BFF36F8F1C
S31508001070BFF34F8F3B62FEE701F0D0FEBB6A9B6B66
S315080010807B627B6A002B1FD0B968B86A00F0F6F855
S315080010907B6A5A1EBB6A9A63BB6A1B69002B0FD010
S315080010A0BB6A1033184600F03DFE0346002B07D0F6
S315080010B03C4B4FF080521A60BFF34F8FBFF36F8FD0
S315080010C001F0DAFE012369E07B68002B03D101F009
S315080010D0D3FE002362E0FB6A002B06D107F110035A
S315080010E0184600F081FE0123FB6201F0C5FE00F000
S315080010F0FDFB01F093FEBB6A93F844305BB2B3F193
S31508001100FF3F03D1BB6A002283F84420BB6A93F8E9
S3150800111045305BB2B3F1FF3F03D1BB6A002283F8C7
S31508001120452001F0A9FE3A1D07F11003114618469D
S3150800113000F070FE0346002B23D1B86A00F016F9BA
S315080011400346002B17D0BB6A24337A681146184623
S3150800115000F09AFDB86A00F0B7F800F0D5FB034630
S31508001160002B89D10F4B4FF080521A60BFF34F8F77
S31508001170BFF36F8F80E7B86A00F0A6F800F0C4FBEB
S315080011807AE7B86A00F0A0F800F0BEFBB86A00F08B
S31508001190EDF80346002B3FF46FAF002318463037AF
S315080011A0BD4680BD04ED00E080B586B000AFF860AE
S315080011B0B9607A6000237B61FB689B6B3B61FB68C7
S315080011C01B6C002B0DD1FB681B68002B4DD1FB68EF
S315080011D09B68184600F07AFF7861FB6800229A60DF
S315080011E043E07B68002B19D1FB685868FB681B6CC9
S315080011F01A46B968FEF7FAFFFB685A68FB681B6C63
S315080012001A44FB685A60FB685A68FB689B689A42EE
S315080012102BD3FB681A68FB685A6026E0FB68D86817
S31508001220FB681B6C1A46B968FEF7E0FFFB68DA68CC
S31508001230FB681B6C5B421A44FB68DA60FB68DA6879
S31508001240FB681B689A4207D2FB689A68FB681B6CA6
S315080012505B421A44FB68DA607B68022B05D13B695E
S31508001260002B02D03B69013B3B613B695A1CFB687A
S315080012709A637B6918461837BD4680BD80B582B02B
S3150800128000AF786039607B681B6C002B18D07B68D0
S31508001290DA687B681B6C1A447B68DA607B68DA68F4
S315080012A07B689B689A4203D37B681A687B68DA6016
S315080012B07B68D9687B681B6C1A463868FEF796FF08
S315080012C000BF0837BD4680BD80B584B000AF7860E2
S315080012D001F0A4FD7B6893F84530FB7311E07B6849
S315080012E05B6A002B12D07B682433184600F01AFD7F
S315080012F00346002B01D000F0EDFDFB7B013BDBB282
S31508001300FB7397F90F30002BE9DC00E000BF7B6820
S31508001310FF2283F8452001F0AFFD01F07FFD7B68D1
S3150800132093F84430BB7311E07B681B69002B12D01D
S315080013307B681033184600F0F5FC0346002B01D0F5
S3150800134000F0C8FDBB7B013BDBB2BB7397F90E30DF
S31508001350002BE9DC00E000BF7B68FF2283F844200D
S3150800136001F08AFD00BF1037BD4680BD80B584B048
S3150800137000AF786001F052FD7B689B6B002B02D1B1
S315080013800123FB6001E00023FB6001F075FDFB68AB
S3150800139018461037BD4680BD80B584B000AF78606A
S315080013A001F03CFD7B689A6B7B68DB6B9A4202D145
S315080013B00123FB6001E00023FB6001F05DFDFB6893
S315080013C018461037BD4680BD80B485B000AF78603A
S315080013D039600023FB6014E00E4AFB6852F833308C
S315080013E0002B0BD10B49FB683A6841F83320094AB0
S315080013F0FB68DB0013447A685A6005E0FB68013332
S31508001400FB60FB68072BE7D900BF1437BD465DF8BC
S31508001410047B7047A04D002080B586B000AFF86009
S31508001420B9607A60FB687B6101F0F8FC7B6993F828
S3150800143044305BB2B3F1FF3F03D17B69002283F8E6
S3150800144044207B6993F845305BB2B3F1FF3F03D183
S315080014507B69002283F8452001F00EFD7B699B6BB2
S31508001460002B06D17B6924337A68B968184600F0E0
S315080014702FFC7869FFF728FF00BF1837BD4680BDE7
S3150800148080B58EB004AFF860B9607A603B607B6B5C
S31508001490002B09D14FF0500383F31188BFF36F8FE8
S315080014A0BFF34F8FBB61FEE7BB6B002B09D14FF033
S315080014B0500383F31188BFF36F8FBFF34F8FFB6120
S315080014C0FEE75C233B613B695C2B09D04FF0500378
S315080014D083F31188BFF36F8FBFF34F8F3B62FEE72D
S315080014E03B69BB6B002B1ED07B6B002B1BD0BB6BE9
S315080014F07B627B6A7A6B1A637B6A022283F85920BD
S31508001500002303937B6A029307F1140301933B6B51
S3150800151000933B687A68B968F86800F051F8786A09
S3150800152000F0DCF801E000237B617B691846283768
S31508001530BD4680BD80B58CB004AFF860B9603B602D
S315080015401346FB80FB889B00184602F007FF78616C
S315080015507B69002B0ED05C2002F000FFF861FB6966
S31508001560002B03D0FB697A691A6305E0786902F0F3
S31508001570B7FF01E00023FB61FB69002B17D0FB696D
S31508001580002283F85920FA8800230393FB69029303
S31508001590FB6A0193BB6A00933B68B968F86800F078
S315080015A00FF8F86900F09AF80123BB6102E04FF0E2
S315080015B0FF33BB61BB6918462037BD4680BD00BFF7
S315080015C080B588B000AFF860B9607A603B603B6B65
S315080015D0186B7B689B001A46A52103F0BDF83B6B88
S315080015E01A6B7B6803F18043013B9B001344BB6184
S315080015F0BB6923F00703BB61BB6903F00703002B34
S3150800160009D04FF0500383F31188BFF36F8FBFF3F0
S315080016104F8F7B61FEE7BB68002B1FD00023FB6161
S3150800162012E0BA68FB69134419783A6BFB691344EC
S3150800163034330A461A70BA68FB6913441B78002BC0
S3150800164006D0FB690133FB61FB690F2BE9D900E082
S3150800165000BF3B6B002283F8432003E03B6B00226C
S3150800166083F83420BB6A372B01D93723BB623B6B1F
S31508001670BA6ADA623B6BBA6ADA643B6B00221A65AD
S315080016803B6B04331846FFF78FF93B6B1833184644
S31508001690FFF78AF93B6B3A6B1A61BB6AC3F13802EA
S315080016A03B6B9A613B6B3A6B5A623B6B00225A65FD
S315080016B03B6B002283F858203A68F968B86901F04C
S315080016C085FA02463B6B1A60FB6A002B02D0FB6A5E
S315080016D03A6B1A6000BF2037BD4680BD80B582B020
S315080016E000AF786001F09AFB2D4B1B6801332C4A3A
S315080016F013602C4B1B68002B09D12A4A7B681360A0
S31508001700274B1B68012B10D100F008FC0DE0264B77
S315080017101B68002B09D1234B1B68DA6A7B68DB6AD6
S315080017209A4202D81F4A7B681360204B1B68013314
S315080017301E4A13601D4B1A687B685A647B68DA6A0E
S315080017401B4B1B689A4203D97B68DB6A184A1360ED
S315080017507B68DA6A13469B0013449B00154A1A44B1
S315080017607B68043319461046FFF72CF901F084FB11
S315080017700D4B1B68002B0ED00A4B1B68DA6A7B6878
S31508001780DB6A9A4207D20C4B4FF080521A60BFF3BD
S315080017904F8FBFF36F8F00BF0837BD4680BD00BFB0
S315080017A02809002054040020340900204409002098
S315080017B0300900205804002004ED00E080B584B00C
S315080017C000AF78600023FB607B68002B16D0134BB4
S315080017D01B68002B09D04FF0500383F31188BFF321
S315080017E06F8FBFF34F8FBB60FEE700F07FF80021D5
S315080017F0786800F0D7FC00F087F8F860FB68002BE3
S3150800180007D1074B4FF080521A60BFF34F8FBFF3D3
S315080018106F8F00BF1037BD4680BD00BF500900203E
S3150800182004ED00E080B58AB004AF0023BB60002356
S315080018307B603A46391D07F10803184601F092F90C
S3150800184039687B68BA6802920193002300930023E3
S315080018500A4620492048FFF713FE02461F4B1A6026
S315080018601E4B1B68002B02D001237B6101E000237D
S315080018707B617B69012B02D100F0E8FC78617B690A
S31508001880012B15D14FF0500383F31188BFF36F8FE7
S31508001890BFF34F8FFB60124B4FF0FF321A60114BAC
S315080018A001221A60104B00221A6001F019FA0DE0A5
S315080018B07B69B3F1FF3F09D14FF0500383F31188D9
S315080018C0BFF36F8FBFF34F8F3B61FEE700BF18373B
S315080018D0BD4680BD04490008ED1E00084C090020DD
S315080018E048090020340900202C09002080B400AFE4
S315080018F0044B1B680133034A136000BFBD465DF8FD
S31508001900047B70475009002080B584B000AF0023DF
S31508001910FB600023BB60414B1B68002B09D14FF0CD
S31508001920500383F31188BFF36F8FBFF34F8F3B606C
S31508001930FEE701F073FA394B1B68013B374A13601F
S31508001940364B1B68002B62D1354B1B68002B5ED0CB
S315080019502FE0344BDB68DB68FB60FB6818331846FE
S31508001960FFF78EF8FB6804331846FFF789F8FB681B
S31508001970DA6A2D4B1B689A4203D9FB68DB6A2A4A46
S315080019801360FB68DA6A13469B0013449B00274AD8
S315080019901A44FB68043319461046FFF713F8FB6828
S315080019A0DA6A234B1B68DB6A9A4202D3214B01226F
S315080019B01A601C4B1B68002BCBD1FB68002B01D08F
S315080019C000F046FB1C4B1B687B607B68002B10D025
S315080019D000F046F80346002B02D0164B01221A6087
S315080019E07B68013B7B607B68002BF1D1124B0022A0
S315080019F01A60104B1B68002B09D00123BB600F4BE4
S31508001A004FF080521A60BFF34F8FBFF36F8F01F00C
S31508001A1033FABB6818461037BD4680BD500900200A
S31508001A2028090020E8080020300900205804002072
S31508001A30540400203C0900203809002004ED00E089
S31508001A4080B483B000AF054B1B687B607B68184683
S31508001A500C37BD465DF8047B704700BF2C09002093
S31508001A6080B586B000AF00237B614E4B1B68002B08
S31508001A7040F088804C4B1B6801333B614A4A3B69FE
S31508001A8013603B69002B1FD1484B1B681B68002B52
S31508001A9009D04FF0500383F31188BFF36F8FBFF35C
S31508001AA04F8F3B60FEE7414B1B68FB60404B1B6852
S31508001AB03E4A13603E4AFB6813603E4B1B6801337F
S31508001AC03C4A136000F0C4FA3B4B1B683A699A42D9
S31508001AD049D3364B1B681B68002B04D1364B4FF095
S31508001AE0FF321A603FE0314B1B68DB68DB68BB607E
S31508001AF0BB685B687B603A697B689A4203D22E4A68
S31508001B007B6813602FE0BB6804331846FEF7B8FFFE
S31508001B10BB689B6A002B04D0BB6818331846FEF7CF
S31508001B20AFFFBB68DA6A254B1B689A4203D9BB68C4
S31508001B30DB6A224A1360BB68DA6A13469B001344C1
S31508001B409B001F4A1A44BB68043319461046FEF721
S31508001B5039FFBB68DA6A1B4B1B68DB6A9A42B8D343
S31508001B6001237B61B5E7174B1B68DA6A14491346EC
S31508001B709B0013449B000B441B68012B07D90123C8
S31508001B807B6104E0104B1B6801330F4A13600F4B4F
S31508001B901B68002B01D001237B617B691846183727
S31508001BA0BD4680BD500900202C090020E008002011
S31508001BB0E4080020400900204809002030090020D8
S31508001BC05804002054040020380900203C0900204D
S31508001BD080B485B000AF274B1B68002B03D0264B7B
S31508001BE001221A6040E0244B00221A60234B1B682E
S31508001BF0FB600FE0FB68002B09D14FF0500383F31D
S31508001C001188BFF36F8FBFF34F8F7B60FEE7FB68CA
S31508001C10013BFB601A49FA6813469B0013449B0074
S31508001C200B441B68002BE5D0FA6813469B00134447
S31508001C309B00134A1344BB60BB685B685A68BB6861
S31508001C405A60BB685A68BB6808339A4204D1BB68B5
S31508001C505B685A68BB685A60BB685B68DB68094A98
S31508001C601360064AFB68136000BF1437BD465DF86B
S31508001C70047B7047500900203C09002030090020E9
S31508001C80580400205404002080B584B000AF786062
S31508001C9039607B68002B09D14FF0500383F3118814
S31508001CA0BFF36F8FBFF34F8FFB60FEE7074B1B68D1
S31508001CB0183319467868FEF7A9FE0121386800F03E
S31508001CC071FA00BF1037BD4680BD00BF540400201E
S31508001CD080B586B000AFF860B9607A60FB68002B03
S31508001CE009D14FF0500383F31188BFF36F8FBFF309
S31508001CF04F8F7B61FEE70A4B1B6818331946F86855
S31508001D00FEF760FE7B68002B02D04FF0FF33BB6006
S31508001D107968B86800F046FA00BF1837BD4680BD36
S31508001D205404002080B586B000AF78607B68DB6815
S31508001D30DB683B613B69002B09D14FF0500383F305
S31508001D401188BFF36F8FBFF34F8FFB60FEE73B69C8
S31508001D5018331846FEF794FE1D4B1B68002B1DD141
S31508001D603B6904331846FEF78BFE3B69DA6A194B62
S31508001D701B689A4203D93B69DB6A164A13603B69BA
S31508001D80DA6A13469B0013449B00134A1A443B69BC
S31508001D90043319461046FEF715FE05E03B6918336D
S31508001DA019460E48FEF70EFE3B69DA6A0C4B1B68AD
S31508001DB0DB6A9A4205D901237B610A4B01221A6024
S31508001DC001E000237B617B6918461837BD4680BD54
S31508001DD0500900203009002058040020E808002097
S31508001DE0540400203C09002080B483B000AF78601A
S31508001DF0064B1A687B681A60054B1A687B685A6036
S31508001E0000BF0C37BD465DF8047B704740090020CB
S31508001E102C09002080B588B000AF786039607B68EF
S31508001E20002B09D14FF0500383F31188BFF36F8F4E
S31508001E30BFF34F8FFB60FEE73B68002B09D14FF0DD
S31508001E40500383F31188BFF36F8FBFF34F8F3B6146
S31508001E50FEE700F0E3FF1D4B1B68BB617B685B6810
S31508001E60BA69D31A7B613B681B68B3F1FF3F02D19D
S31508001E700023FB6123E07B681A68154B1B689A42AE
S31508001E8007D07B685A68BB699A4202D80123FB616E
S31508001E9015E03B681A687B699A420BD93B681A6851
S31508001EA07B69D21A3B681A607868FFF79DFF0023A2
S31508001EB0FB6104E03B6800221A600123FB6100F025
S31508001EC0DBFFFB6918462037BD4680BD2C0900207C
S31508001ED04009002080B400AF034B01221A6000BFFE
S31508001EE0BD465DF8047B70473C09002080B582B08A
S31508001EF000AF786000F052F8064B1B68012BF9D941
S31508001F00054B4FF080521A60BFF34F8FBFF36F8FA8
S31508001F10F0E700BF5804002004ED00E080B582B069
S31508001F2000AF00237B600CE07A6813469B001344DD
S31508001F309B00124A13441846FEF716FD7B680133C8
S31508001F407B607B68372BEFD90D48FEF70DFD0D48F2
S31508001F50FEF70AFD0C48FEF707FD0C48FEF704FDE0
S31508001F600B48FEF701FD0B4B054A1A600A4B054A5A
S31508001F701A6000BF0837BD4680BD00BF5804002060
S31508001F80B8080020CC080020E8080020FC0800203B
S31508001F9014090020E0080020E408002080B582B07B
S31508001FA000AF19E000F03AFF0F4BDB68DB687B6097
S31508001FB07B6804331846FEF763FD0C4B1B68013B30
S31508001FC00A4A13600A4B1B68013B094A136000F072
S31508001FD053FF786800F00EF8054B1B68002BE1D11B
S31508001FE000BF0837BD4680BDFC0800202809002030
S31508001FF01009002080B584B000AF78607B6893F83C
S315080020005930002B08D17B681B6B184602F068FA1A
S31508002010786802F065FA17E07B6893F85930012B67
S3150800202003D1786802F05CFA0EE07B6893F85930C1
S31508002030022B09D04FF0500383F31188BFF36F8F3B
S31508002040BFF34F8FFB60FEE700BF1037BD4680BD6C
S3150800205080B483B000AF0C4B1B681B68002B04D1FF
S315080020600A4B4FF0FF321A6008E0074B1B68DB6823
S31508002070DB687B607B685B68044A136000BF0C37CB
S31508002080BD465DF8047B7047E0080020480900203B
S3150800209080B483B000AF0B4B1B68002B02D1012321
S315080020A07B6008E0084B1B68002B02D102237B608B
S315080020B001E000237B607B6818460C37BD465DF857
S315080020C0047B7047340900205009002080B586B08B
S315080020D000AF78607B683B6100237B617B68002BDF
S315080020E054D02D4B1B683A699A4209D04FF05003D9
S315080020F083F31188BFF36F8FBFF34F8FBB60FEE783
S315080021003B691B6D002B09D14FF0500383F31188EF
S31508002110BFF36F8FBFF34F8FFB60FEE73B691B6D05
S315080021205A1E3B691A653B69DA6A3B69DB6C9A4257
S315080021302CD03B691B6D002B28D13B69043318460C
S31508002140FEF79EFC3B69DA6C3B69DA623B69DB6A3F
S31508002150C3F138023B699A613B69DA6A0F4B1B681F
S315080021609A4203D93B69DB6A0C4A13603B69DA6A0F
S3150800217013469B0013449B00094A1A443B690433DF
S3150800218019461046FEF71EFC01237B617B6918463B
S315080021901837BD4680BD00BF540400203009002012
S315080021A05804002080B584B000AF78603960214BB0
S315080021B01B68FB60204B1B6804331846FEF760FC5F
S315080021C07B68B3F1FF3F0AD13B68002B07D01A4B57
S315080021D01B68043319461948FEF7F4FB26E0FA682B
S315080021E07B681344BB60144B1B68BA685A60BA68AC
S315080021F0FB689A4209D2124B1A680F4B1B680433C4
S3150800220019461046FEF702FC10E00E4B1A680A4BF8
S315080022101B68043319461046FEF7F8FB0A4B1B6881
S31508002220BA689A4202D2084ABB68136000BF1037E0
S31508002230BD4680BD2C090020540400201409002046
S31508002240E4080020E00800204809002080B58AB08C
S3150800225004AF00237B6100F0FFFA1C4B1B68002BC0
S3150800226021D00023FB600023BB603A1D07F108015B
S3150800227007F10C03184600F08FFC7968BB68FA680A
S31508002280029201930223009300230A46104911483B
S31508002290FFF7F6F80246104B1A600F4B1B68002B27
S315080022A001D001237B617B69002B09D14FF05003D4
S315080022B083F31188BFF36F8FBFF34F8F3B61FEE740
S315080022C07B6918461837BD4680BD00BF84090020C3
S315080022D00C4900080D2400088809002080B58AB03A
S315080022E000AFF860B9607A603B6000237B62FB68E8
S315080022F0002B09D14FF0500383F31188BFF36F8F7A
S31508002300BFF34F8F3B62FEE7194B1B68002B2AD0A1
S31508002310BB683B617B687B61FB68BB61BB68052B5F
S3150800232018DCFFF7B5FE0346022B09D1104B1868D7
S3150800233007F1100100233A6BFEF7CCFC786212E035
S315080023400B4B186807F1100100230022FEF7C2FCA8
S31508002350786208E0064B186807F1100100233A680E
S31508002360FEF7B2FD78627B6A18462837BD4680BDFF
S315080023708409002080B588B002AF78603960224BA6
S315080023801B68DB68DB687B617B6904331846FEF7EC
S3150800239077FB7B6993F8283003F00403002B21D0E0
S315080023A07B699A697B68D1187B683A68786900F016
S315080023B0D1F80346002B1ED00023009300237A6829
S315080023C000217869FFF78AFF38613B69002B12D133
S315080023D04FF0500383F31188BFF36F8FBFF34F8F0E
S315080023E0FB60FEE77B6993F8283023F00103DAB235
S315080023F07B6983F828207B691B6A7869984700BF40
S315080024001837BD4680BD00BF7C09002080B584B062
S3150800241000AF786007F10803184600F057F8F8602F
S31508002420BB681946F86800F003F800F0D5F8F1E73C
S3150800243080B584B000AF78603960FFF757FA07F1C6
S315080024400803184600F066F8F860BB68002B30D120
S315080024503B68002B0AD17A68FB689A4206D8FFF7D0
S3150800246053FAF9687868FFF785FF24E03B68002B84
S3150800247008D0134B1B681B68002B01D1012300E011
S3150800248000233B600F4B18687A68FB68D31A3A68D2
S315080024901946FEF7C1FFFFF737FA0346002B0AD1A4
S315080024A0094B4FF080521A60BFF34F8FBFF36F8FFF
S315080024B001E0FFF729FA00BF1037BD4680BD00BF0F
S315080024C0800900208409002004ED00E080B485B06E
S315080024D000AF78600E4B1B681B68002B01D10122E8
S315080024E000E000227B681A607B681B68002B05D118
S315080024F0074B1B68DB681B68FB6001E00023FB6079
S31508002500FB6818461437BD465DF8047B704700BF64
S315080025107C09002080B584B000AF7860FFF790FA98
S31508002520F8600B4B1B68FA689A4205D200F030F93E
S315080025307B6801221A6002E07B6800221A60044A5E
S31508002540FB681360FB6818461037BD4680BD00BFA0
S315080025508C09002080B586B000AFF860B9607A6053
S315080025603B6000237B61FB68BA685A60FB68FA68BF
S315080025701A61BA687B689A4212D87A683B68D21A96
S31508002580FB689B699A4202D301237B611BE0104BCF
S315080025901A68FB68043319461046FEF737FA12E044
S315080025A07A683B689A4206D2BA683B689A4202D36E
S315080025B001237B6107E0074B1A68FB680433194659
S315080025C01046FEF723FA7B6918461837BD4680BDC4
S315080025D0800900207C09002080B58EB002AFC6E0D5
S315080025E07B68002B17DA3B1D0433FB62FB6A002B62
S315080025F009D14FF0500383F31188BFF36F8FBFF3F0
S315080026004F8F7B61FEE7FB6A1B68FA6A5068FA6AB5
S315080026109268114698477B68002BC0F2A880FB6831
S315080026207B627B6A5B69002B04D07B6A043318469D
S31508002630FEF726FA3B461846FFF76CFF38627B68BA
S31508002640092B00F2938001A252F823F075260008A0
S315080026507526000875260008E7260008FB260008E8
S31508002660432700087526000875260008E72600088F
S31508002670FB2600087B6A93F8283043F00103DAB298
S315080026807B6A83F82820BA687B6A9B69D118BB687D
S315080026903A6A786AFFF75EFF0346002B67D07B6AC3
S315080026A01B6A786A98477B6A93F8283003F0040314
S315080026B0002B5CD0BA687B6A9B691A440023009396
S315080026C000230021786AFFF709FEF861FB69002BF1
S315080026D04DD14FF0500383F31188BFF36F8FBFF3CB
S315080026E04F8FBB62FEE77B6A93F8283023F001031D
S315080026F0DAB27B6A83F8282039E07B6A93F82830B7
S3150800270043F00103DAB27B6A83F82820BA687B6A49
S315080027109A617B6A9B69002B09D14FF0500383F3BA
S315080027201188BFF36F8FBFF34F8FBB61FEE77B6ADC
S315080027309A693B6AD1183B6A3A6A786AFFF70AFFD0
S3150800274015E07B6A93F8283003F00203002B03D1C7
S31508002750786A01F0C5FE0AE07B6A93F8283023F010
S315080027600103DAB27B6A83F8282000E000BF074B32
S315080027701B68391D00221846FEF73AFC0346002B53
S315080027807FF42EAF00BF3037BD4680BD84090020D8
S3150800279080B588B002AF47E02D4B1B68DB681B6825
S315080027A07B612B4B1B68DB68DB683B613B69043349
S315080027B01846FEF765F93B691B6A386998473B690D
S315080027C093F8283003F00403002B2DD03B699A694F
S315080027D07B691344FB60FA687B699A420ED93B69A8
S315080027E0FA685A603B693A691A61194B1A683B6973
S315080027F0043319461046FEF709F915E0002300933D
S3150800280000237A6900213869FFF768FDB860BB685C
S31508002810002B09D14FF0500383F31188BFF36F8F54
S31508002820BFF34F8F3B60FEE7094B1B681B68002B05
S31508002830B2D1074B1B687B60064B1B68044A1360C2
S31508002840044A7B68136000BF1837BD4680BD00BFC9
S315080028507C0900208009002080B582B002AF00F014
S31508002860DDFA154B1B68002B20D11448FEF77CF8BF
S315080028701348FEF779F8134B104A1A60124B104AA0
S315080028801A6000230093114B114A10210A20FEF703
S3150800289089F90246084B1A60074B1B68002B05D0BE
S315080028A0054B1B680B491846FEF78EFD00F0E4FA47
S315080028B000BFBD4680BD00BF840900205409002022
S315080028C0680900207C09002080090020300A0020C1
S315080028D0900900201449000880B400AF00BFBD4627
S315080028E05DF8047B704700BF80B485B000AFEFF396
S315080028F005833B603B68002B0FD1EFF31083BB6069
S31508002900BB68002B05D1EFF311837B607B68002B36
S3150800291007D00E4B1B68022B03D16FF00503FB6033
S315080029200CE00A4B1B68002B05D1084B01221A60E4
S315080029300023FB6002E04FF0FF33FB60FB6818469C
S315080029401437BD465DF8047B704700BF800A002037
S3150800295080B584B000AFEFF305833B603B68002B7E
S315080029600FD1EFF31083BB60BB68002B05D1EFF3E3
S3150800297011837B607B68002B07D00F4B1B68022BEB
S3150800298003D16FF00503FB6010E00B4B1B68012BAE
S3150800299009D1FFF7A1FF084B02221A60FEF742FF92
S315080029A00023FB6002E04FF0FF33FB60FB6818462C
S315080029B01037BD4680BD00BF800A002080B590B0A4
S315080029C004AFF860B9607A6000233B61EFF30583D2
S315080029D07B617B69002B40F08F80EFF31083FB61EE
S315080029E0FB69002B05D1EFF31183BB61BB69002B93
S315080029F003D0444B1B68022B7ED0FB68002B7BD090
S31508002A008023BB6218237B620023FB624FF0FF33EF
S31508002A103B627B68002B45D07B681B68002B02D085
S31508002A207B681B68FB627B689B69002B02D07B680E
S31508002A309B697B627B6A002B08D07B6A382B05D89A
S31508002A407B685B6803F00103002B01D0002354E088
S31508002A507B685B69002B03D07B685B699B08BB625C
S31508002A607B689B68002B0ED07B68DB685B2B0AD9DA
S31508002A707B681B69002B06D07B685B69002B02D03C
S31508002A8001233B6210E07B689B68002B0CD17B68B6
S31508002A90DB68002B08D17B681B69002B04D1002357
S31508002AA03B6201E000233B623B6A012B10D17B6845
S31508002AB01B697A689268029201937B6A0093BB68E5
S31508002AC0BA6AF96AF868FEF7DBFC03463B6113E06D
S31508002AD03B6A002B10D1BB6A9AB207F11003019327
S31508002AE07B6A0093BB68F96AF868FEF723FD03461C
S31508002AF0012B01D000233B613B6918463037BD46A0
S31508002B0080BD00BF800A002080B586B000AF78601F
S31508002B10EFF30583BB60BB68002B0FD1EFF310837F
S31508002B203B613B69002B05D1EFF31183FB60FB6822
S31508002B30002B07D00A4B1B68022B03D16FF0050345
S31508002B407B6107E000237B617B68002B02D07868F5
S31508002B50FEF734FE7B6918461837BD4680BD00BFB0
S31508002B60800A002080B485B000AFF860B9607A604A
S31508002B70FB68074A1A60BB68064A1A607B688022A7
S31508002B801A6000BF1437BD465DF8047B704700BF66
S31508002B90840A0020E00A002080B485B000AFF860FF
S31508002BA0B9607A60FB68074A1A60BB68064A1A6009
S31508002BB07B684FF480721A6000BF1437BD465DF813
S31508002BC0047B7047E00C00203C0D002080B485B0E3
S31508002BD000AFF860B9607A60FB68043BFB60FB688D
S31508002BE04FF080721A60FB68043BFB60BB6823F0F9
S31508002BF00102FB681A60FB68043BFB600C4AFB6831
S31508002C001A60FB68143BFB607A68FB681A60FB680D
S31508002C10043BFB60FB686FF002021A60FB68203B0E
S31508002C20FB60FB6818461437BD465DF8047B7047A1
S31508002C30352C000880B485B000AF00237B60114BAB
S31508002C401B68B3F1FF3F09D04FF0500383F3118897
S31508002C50BFF36F8FBFF34F8FBB60FEE74FF0500394
S31508002C6083F31188BFF36F8FBFF34F8FFB6000BFED
S31508002C707B68002BFCD000BF1437BD465DF8047B8B
S31508002C80704700BF0400002000000000000000009C
S31508002C90074B19680868B0E8F04F80F30988BFF356
S31508002CA06F8F4FF0000080F311887047AFF30080F4
S31508002CB05404002000BF00BF08480068006880F37D
S31508002CC008884FF0000080F3148862B661B6BFF337
S31508002CD04F8FBFF36F8F00DF00BF00BF08ED00E026
S31508002CE080B586B000AF444B1B68444A934209D16D
S31508002CF04FF0500383F31188BFF36F8FBFF34F8FE5
S31508002D00BB60FEE73C4B1B683D4A934209D14FF036
S31508002D10500383F31188BFF36F8FBFF34F8FFB60A8
S31508002D20FEE7384B7B617B691B78DBB27B607B698E
S31508002D30FF221A707B691B78DBB2FB70FB78DBB26B
S31508002D4003F05003DAB2304B1A70304B07221A6080
S31508002D5009E02E4B1B68013B2C4A1360FB78DBB25B
S31508002D605B00DBB2FB70FB78DBB25BB2002BF0DBFF
S31508002D70264B1B68C3F10703042B09D04FF05003F9
S31508002D8083F31188BFF36F8FBFF34F8F3B61FEE765
S31508002D901E4B1B681B021D4A13601C4B1B6803F461
S31508002DA0E0631A4A13607B68DAB27B691A70184ABC
S31508002DB0174B1B6843F470031360154A144B1B68C2
S31508002DC043F07043136000F0D7F8124B00221A60E4
S31508002DD000F0F6F8104A104B1B6843F040431360A6
S31508002DE0FFF76AFFFEF7F4FEFFF724FF00231846F5
S31508002DF01837BD4680BD00BF00ED00E071C20F4127
S31508002E0070C20F4100E400E03C1100204011002090
S31508002E1020ED00E00400002034EF00E080B483B029
S31508002E2000AF4FF0500383F31188BFF36F8FBFF3E2
S31508002E304F8F3B600E4B1B6801330D4A13600C4BDA
S31508002E401B68012B0ED10B4B1B68DBB2002B09D07C
S31508002E504FF0500383F31188BFF36F8FBFF34F8F83
S31508002E607B60FEE700BF0C37BD465DF8047B704704
S31508002E700400002004ED00E080B483B000AF114BDD
S31508002E801B68002B09D14FF0500383F31188BFF359
S31508002E906F8FBFF34F8F3B60FEE70A4B1B68013B02
S31508002EA0084A1360074B1B68002B04D100237B607C
S31508002EB07B6883F3118800BF0C37BD465DF8047B39
S31508002EC0704700BF0400002000000000000000005A
S31508002ED0EFF30980BFF36F8F154B1A681EF0100FBA
S31508002EE008BF20ED108A20E9F04F10602DE909008F
S31508002EF04FF0500080F31188BFF34F8FBFF36F8FE9
S31508002F00FEF766FE4FF0000080F3118809BC1968C9
S31508002F100868B0E8F04F1EF0100F08BFB0EC108A32
S31508002F2080F30988BFF36F8F704700BFAFF3008047
S31508002F305404002000BF00BF80B582B000AF4FF038
S31508002F40500383F31188BFF36F8FBFF34F8F3B6036
S31508002F50FEF786FD0346002B03D0064B4FF0805242
S31508002F601A6000237B607B6883F3118800BF0837EB
S31508002F70BD4680BD04ED00E080B400AF0B4B0022D7
S31508002F801A600B4B00221A600A4A0B4B1B680B4946
S31508002F90A1FB03139B09013B1360044B07221A602C
S31508002FA000BFBD465DF8047B704700BF10E000E037
S31508002FB018E000E014E000E000000020D34D6210A5
S31508002FC0DFF80C00016841F470010160704700BF2A
S31508002FD088ED00E080B485B000AFEFF30583FB60B1
S31508002FE0FB680F2B13D9164AFB6813441B78FB7230
S31508002FF0144B1B78FA7A9A4209D24FF0500383F39E
S315080030001188BFF36F8FBFF34F8F3B60FEE70E4B00
S315080030101B6803F4E0620D4B1B689A4209D94FF00E
S31508003020500383F31188BFF36F8FBFF34F8F7B6015
S31508003030FEE700BF1437BD465DF8047B704700BF46
S31508003040F0E300E03C1100200CED00E04011002008
S31508003050DFF834D0002103E00C4B5B5843500431B1
S315080030600B480C4B42189A42F6D30B4A02E000234F
S3150800307042F8043B094B9A42F9D3FDF75FFC01F08D
S3150800308043FBFDF7D9FA704700000220744900088F
S31508003090000000203804002038040020E44D0020F9
S315080030A0FEE7000080B586B000AF78607B68002B2D
S315080030B001D101235AE27B681B6803F00103002B48
S315080030C074D0A74B9B6803F00C03042B0BD0A44BBE
S315080030D09B6803F00C03082B11D1A14B5B6803F422
S315080030E08003002B0BD09E4B1B6803F40033002B88
S315080030F05BD07B685B68002B57D1012336E27B687F
S315080031005B68B3F5803F06D1954A954B1B6843F437
S31508003110803313601DE07B685B68B3F5A02F0CD184
S315080031208F4A8F4B1B6843F4802313608C4A8C4B61
S315080031301B6843F4803313600BE0894A884B1B688D
S3150800314023F480331360864A854B1B6823F4802357
S3150800315013607B685B68002B13D000F0B5FE3861FE
S3150800316008E000F0B1FE02463B69D31A642B01D988
S315080031700323FBE17A4B1B6803F40033002BF0D0E2
S3150800318014E000F0A1FE386108E000F09DFE02465A
S315080031903B69D31A642B01D90323E7E1704B1B68FB
S315080031A003F40033002BF0D100E000BF7B681B68F6
S315080031B003F00203002B63D0694B9B6803F00C03F2
S315080031C0002B0BD0664B9B6803F00C03082B1CD115
S315080031D0634B5B6803F48003002B16D1604B1B68B6
S315080031E003F00203002B05D07B68DB68012B01D0B6
S315080031F00123BBE15A495A4B1B6823F0F8027B6846
S315080032001B69DB0013430B603AE07B68DB68002B25
S3150800321020D0544B01221A6000F056FE386108E0AF
S3150800322000F052FE02463B69D31A022B01D903234A
S315080032309CE14B4B1B6803F00203002BF0D0484976
S31508003240474B1B6823F0F8027B681B69DB001343B6
S315080032500B6015E0434B00221A6000F035FE38611A
S3150800326008E000F031FE02463B69D31A022B01D969
S3150800327003237BE13A4B1B6803F00203002BF0D1D2
S315080032807B681B6803F00803002B30D07B685B69FA
S31508003290002B16D0344B01221A6000F015FE386157
S315080032A008E000F011FE02463B69D31A022B01D949
S315080032B003235BE12A4B5B6F03F00203002BF0D07C
S315080032C015E0294B00221A6000F0FEFD386108E07F
S315080032D000F0FAFD02463B69D31A022B01D90323F3
S315080032E044E11F4B5B6F03F00203002BF0D17B68B0
S315080032F01B6803F00403002B00F0A0800023FB7575
S31508003300174B1B6C03F08053002B0FD10023BB60B7
S31508003310134A134B1B6C43F080531364104B1B6CFE
S3150800332003F08053BB60BB680123FB750F4B1B681A
S3150800333003F48073002B21D10C4A0C4B1B6843F411
S315080033408073136000F0C0FD386111E000F0BCFD29
S3150800335002463B69D31A022B0AD9032306E100BFAA
S315080033600038024000004742800E47420070004085
S31508003370804B1B6803F48073002BE7D07B689B683F
S31508003380012B06D17C4A7C4B1B6F43F00103136764
S315080033901CE07B689B68052B0CD1774A764B1B6F24
S315080033A043F004031367744A734B1B6F43F001031E
S315080033B013670BE0704A704B1B6F23F0010313670A
S315080033C06D4A6D4B1B6F23F0040313677B689B687C
S315080033D0002B15D000F078FD38610AE000F074FD86
S315080033E002463B69D31A41F28832934201D9032334
S315080033F0BCE0614B1B6F03F00203002BEED014E018
S3150800340000F062FD38610AE000F05EFD02463B69A5
S31508003410D31A41F28832934201D90323A6E0564BC8
S315080034201B6F03F00203002BEED1FB7D012B05D1A8
S31508003430514A514B1B6C23F0805313647B689B697C
S31508003440002B00F092804C4B9B6803F00C03082B72
S315080034505CD07B689B69022B41D1484B00221A60DD
S3150800346000F032FD386108E000F02EFD02463B69A7
S31508003470D31A022B01D9032378E03F4B1B6803F0CC
S315080034800073002BF0D13C497B68DA697B681B6ABC
S315080034901A437B685B6A9B011A437B689B6A5B08D5
S315080034A0013B1B041A437B68DB6A1B0613434B600C
S315080034B0324B01221A6000F007FD386108E000F07F
S315080034C003FD02463B69D31A022B01D903234DE0BB
S315080034D0294B1B6803F00073002BF0D045E0274BFF
S315080034E000221A6000F0F0FC386108E000F0ECFCFD
S315080034F002463B69D31A022B01D9032336E01E4B39
S315080035001B6803F00073002BF0D12EE07B689B69E3
S31508003510012B01D1012329E0174B5B68FB60FB688F
S3150800352003F480027B68DB699A421CD1FB6803F0CE
S315080035303F027B681B6A9A4215D1FA6847F6C07340
S3150800354013407A68526A93420DD1FB6803F44032FD
S315080035507B689B6A9A4206D1FB6803F070627B68B7
S31508003560DB6A9A4201D0012300E000231846183787
S31508003570BD4680BD007000400038024060004742EA
S3150800358080B584B000AF786039607B68002B01D1C4
S315080035900123CCE0684B1B6803F00F023B689A4294
S315080035A00CD2654B3A68D2B21A70634B1B6803F0AB
S315080035B00F023B689A4201D00123B8E07B681B687A
S315080035C003F00203002B20D07B681B6803F004037A
S315080035D0002B05D0594A594B9B6843F4E053936036
S315080035E07B681B6803F00803002B05D0534A534B2E
S315080035F09B6843F4604393605049504B9B6823F0A3
S31508003600F0027B689B6813438B607B681B6803F03A
S315080036100103002B44D07B685B68012B07D1474B1D
S315080036201B6803F40033002B19D101237FE07B6864
S315080036305B68022B03D07B685B68032B07D13F4B83
S315080036401B6803F00073002B09D101236FE03B4B85
S315080036501B6803F00203002B01D1012367E03749F9
S31508003660364B9B6823F003027B685B6813438B60C9
S3150800367000F02AFCF8600AE000F026FC0246FB6827
S31508003680D31A41F28832934201D903234FE02B4BD8
S315080036909B6803F00C027B685B689B009A42EBD13F
S315080036A0254B1B6803F00F023B689A420CD9224B44
S315080036B03A68D2B21A70204B1B6803F00F023B68B7
S315080036C09A4201D0012332E07B681B6803F00403A9
S315080036D0002B08D01949194B9B6823F4E0527B68E4
S315080036E0DB6813438B607B681B6803F00803002BB9
S315080036F009D01249114B9B6823F460427B681B6909
S31508003700DB0013438B6000F021F801460B4B9B68E6
S3150800371003F0F0031B090A4AD35C21FA03F3094AAA
S315080037201360094B1B681846FDF786F800231846F0
S315080037301037BD4680BD00BF003C0240003802403D
S315080037404049000800000020080000202DE9F04F3D
S3150800375087B000AF0020F860002078610020B860CC
S31508003760002038614648806800F00C00042806D01E
S31508003770082807D0002879D1424B3B6179E0424BB3
S315080037803B6176E03E48406800F03F00F8603C4800
S31508003790406800F4800000281ED0394B5A6847F666
S315080037A0C07313409B094FF00004374A02FB04F12B
S315080037B0002202FB03F20A443349A3FB0101531812
S315080037C01946FB684FF000041A462346FCF7A8FD85
S315080037D003460C467B613BE02948456847F6C070BE
S315080037E02840800905464FF00006C7E900564FEA0B
S315080037F0C60B4BEA557B4FEAC50A55465E4672012B
S3150800380042EAD5626901491B62EB0602940144EA61
S3150800381091648B015B1A64EB0204D7E90056ED1834
S3150800382046EB04062B4634464FEA842949EA93595F
S315080038304FEA832843464C4618462146FB684FF014
S3150800384000041A462346FCF76BFD03460C467B61CB
S315080038500B4B5B6803F440331B0C01335B00BB6006
S315080038607A69BB68B2FBF3F33B6102E0054B3B6147
S3150800387000BF3B6918461C37BD46BDE8F08F00BF40
S31508003880003802400024F40040787D0180B400AF7F
S31508003890034B1B681846BD465DF8047B704700BF9E
S315080038A00000002080B500AFFFF7F0FF0146054B8A
S315080038B09B6803F460435B0B034AD35C21FA03F36A
S315080038C0184680BD003802405049000880B483B0CD
S315080038D000AF786039607B680F221A60124B9B68CC
S315080038E003F003027B685A600F4B9B6803F0F002F3
S315080038F07B689A600C4B9B6803F4E0527B68DA603D
S31508003900094B9B6803F46043DA087B681A61074B26
S315080039101B6803F00F023B681A6000BF0C37BD46F0
S315080039205DF8047B704700BF00380240003C024047
S3150800393080B489B000AF7860396000237B610023CA
S315080039403B610023BB610023FB616BE10122FB693C
S3150800395002FA03F37B613B681A687B6913403B6193
S315080039603A697B699A4240F05A813B685B68012B49
S315080039700BD03B685B68022B07D03B685B68112B52
S3150800398003D03B685B68122B30D17B689B68BB61B0
S31508003990FB695B00032202FA03F3DB43BA691340AF
S315080039A0BB613B68DA68FB695B0002FA03F3BA6934
S315080039B01343BB617B68BA699A607B685B68BB61C5
S315080039C00122FB6902FA03F3DB43BA691340BB61C0
S315080039D03B685B681B0903F00102FB6902FA03F303
S315080039E0BA691343BB617B68BA695A607B68DB684E
S315080039F0BB61FB695B00032202FA03F3DB43BA6986
S31508003A001340BB613B689A68FB695B0002FA03F3E3
S31508003A10BA691343BB617B68BA69DA603B685B685D
S31508003A20022B03D03B685B68122B23D1FB69DA08AB
S31508003A307B68083253F82230BB61FB6903F0070341
S31508003A409B000F2202FA03F3DB43BA691340BB61FA
S31508003A503B681A69FB6903F007039B0002FA03F344
S31508003A60BA691343BB61FB69DA087B680832B9692E
S31508003A7043F822107B681B68BB61FB695B00032265
S31508003A8002FA03F3DB43BA691340BB613B685B6820
S31508003A9003F00302FB695B0002FA03F3BA691343F6
S31508003AA0BB617B68BA691A603B685B6803F0805340
S31508003AB0002B00F0B4800023FB605F4A5E4B5B6C12
S31508003AC043F4804353645C4B5B6C03F48043FB60B4
S31508003AD0FB685A4AFB699B08023352F82330BB61DC
S31508003AE0FB6903F003039B000F2202FA03F3DB438F
S31508003AF0BA691340BB617B68514A93422BD07B68F5
S31508003B00504A934225D07B684F4A93421FD07B6820
S31508003B104E4A934219D07B684D4A934213D07B682C
S31508003B204C4A93420DD07B684B4A934207D07B6838
S31508003B304A4A934201D107230EE008230CE00623E4
S31508003B400AE0052308E0042306E0032304E0022331
S31508003B5002E0012300E00023FA6902F00302920062
S31508003B609340BA691343BB613449FB699B08023326
S31508003B70BA6941F823203A4B1B68BB613B69DB43B2
S31508003B80BA691340BB613B685B6803F48033002B5A
S31508003B9003D0BA693B691343BB61314ABB691360F9
S31508003BA02F4B5B68BB613B69DB43BA691340BB615A
S31508003BB03B685B6803F40033002B03D0BA693B69A2
S31508003BC01343BB61264ABB695360254B9B68BB619F
S31508003BD03B69DB43BA691340BB613B685B6803F426
S31508003BE08013002B03D0BA693B691343BB611C4A97
S31508003BF0BB6993601A4BDB68BB613B69DB43BA69F7
S31508003C001340BB613B685B6803F40013002B03D0C9
S31508003C10BA693B691343BB61114ABB69D360FB6947
S31508003C200133FB61FB690F2B7FF690AE00BF24378B
S31508003C30BD465DF8047B70470038024000380140F5
S31508003C40000002400004024000080240000C024046
S31508003C50001002400014024000180240001C0240F6
S31508003C60003C014080B483B000AF78600B467B808F
S31508003C7013467B707B78002B03D07A887B689A6121
S31508003C8003E07B881A047B689A6100BF0C37BD463F
S31508003C905DF8047B704700BF80B485B000AF7860DC
S31508003CA07B6803F00703FB600C4BDB68BB60BA68F4
S31508003CB04FF6FF031340BB60FB681A02BB68134349
S31508003CC043F0BF6343F40033BB60044ABB68D36068
S31508003CD000BF1437BD465DF8047B704700ED00E071
S31508003CE080B400AF044BDB6803F4E0631B0A184694
S31508003CF0BD465DF8047B704700ED00E080B483B0F4
S31508003D0000AF0346FB7197F90730002B0BDB094917
S31508003D1097F907305B09FA7902F01F02012000FAC9
S31508003D2002F241F8232000BF0C37BD465DF8047B3C
S31508003D30704700BF00E100E080B483B000AF0346DF
S31508003D403960FB7197F90730002B0ADB0D4997F9A3
S31508003D5007303A68D2B21201D2B20B4483F8002374
S31508003D600AE00949FB7903F00F03043B3A68D2B22B
S31508003D701201D2B20B441A7600BF0C37BD465DF865
S31508003D80047B704700E100E000ED00E080B489B0F4
S31508003D9000AFF860B9607A60FB6803F00703FB615F
S31508003DA0FB69C3F10703042B28BF0423BB61FB6926
S31508003DB00433062B02D9FB69033B00E000237B6131
S31508003DC00122BB6902FA03F35A1EBB681A407B69D3
S31508003DD09A4001217B6901FA03F3591E7B680B405F
S31508003DE0134318462437BD465DF8047B704700BF69
S31508003DF080B582B000AF78607868FFF74DFF00BFE6
S31508003E000837BD4680BD00BF80B586B000AF034603
S31508003E10B9607A60FB7300237B61FFF761FF786105
S31508003E207A68B9687869FFF7B1FF024697F90F30E3
S31508003E3011461846FFF780FF00BF1837BD4680BDFC
S31508003E4080B582B000AF0346FB7197F90730184674
S31508003E50FFF754FF00BF0837BD4680BD80B500AFE9
S31508003E600E4A0E4B1B6843F4007313600B4A0B4B48
S31508003E701B6843F480631360084A084B1B6843F4C5
S31508003E80807313600320FFF7B3FF0020FCF7D4FC10
S31508003E90FCF7A6FC0023184680BD00BF003C024084
S31508003EA080B400AF064B1B781A46064B1B681344B2
S31508003EB0044A136000BFBD465DF8047B704700BF27
S31508003EC00C000020E04D002080B400AF034B1B68B7
S31508003ED01846BD465DF8047B704700BFE04D0020DC
S31508003EE080B582B000AF78607B68002B01D10123D2
S31508003EF01DE07B6893F83D30DBB2002B06D17B686A
S31508003F00002283F83C20786800F016F87B680222C5
S31508003F1083F83D207B681A687B6804331946104687
S31508003F2000F068F97B68012283F83D2000231846D3
S31508003F300837BD4680BD00BF80B483B000AF786047
S31508003F4000BF0C37BD465DF8047B704780B485B06A
S31508003F5000AF78607B681B687A681268D26842F09E
S31508003F600102DA607B681B689B6803F00703FB6045
S31508003F70FB68062B07D07B681B687A68126812688C
S31508003F8042F001021A60002318461437BD465DF850
S31508003F90047B704780B582B000AF78607B681B6889
S31508003FA01B6903F00203002B22D07B681B68DB68C1
S31508003FB003F00203002B1BD07B681B686FF002021C
S31508003FC01A617B6801221A777B681B689B6903F074
S31508003FD00303002B03D0786800F0EEF805E0786854
S31508003FE000F0E0F8786800F0F1F87B6800221A77AC
S31508003FF07B681B681B6903F00403002B22D07B68CF
S315080040001B68DB6803F00403002B1BD07B681B6866
S315080040106FF004021A617B6802221A777B681B68B4
S315080040209B6903F44073002B03D0786800F0C4F84A
S3150800403005E0786800F0B6F8786800F0C7F87B689D
S3150800404000221A777B681B681B6903F00803002B9C
S3150800405022D07B681B68DB6803F00803002B1BD0A3
S315080040607B681B686FF008021A617B6804221A775E
S315080040707B681B68DB6903F00303002B03D07868B1
S3150800408000F09AF805E0786800F08CF8786800F097
S315080040909DF87B6800221A777B681B681B6903F00A
S315080040A01003002B22D07B681B68DB6803F0100323
S315080040B0002B1BD07B681B686FF010021A617B68A7
S315080040C008221A777B681B68DB6903F44073002BA8
S315080040D003D0786800F070F805E0786800F062F8B8
S315080040E0786800F073F87B6800221A777B681B688B
S315080040F01B6903F00103002B0ED07B681B68DB6885
S3150800410003F00103002B07D07B681B686FF00102E0
S315080041101A617868FCF74AFB7B681B681B6903F021
S315080041208003002B0ED07B681B68DB6803F08003D6
S31508004130002B07D07B681B686FF080021A617868CD
S3150800414000F002F97B681B681B6903F04003002B2B
S315080041500ED07B681B68DB6803F04003002B07D092
S315080041607B681B686FF040021A61786800F038F8BF
S315080041707B681B681B6903F02003002B0ED07B6845
S315080041801B68DB6803F02003002B07D07B681B68DD
S315080041906FF020021A61786800F0CCF800BF083783
S315080041A0BD4680BD80B483B000AF786000BF0C37D1
S315080041B0BD465DF8047B704780B483B000AF786075
S315080041C000BF0C37BD465DF8047B704780B483B0EA
S315080041D000AF786000BF0C37BD465DF8047B7047BA
S315080041E080B483B000AF786000BF0C37BD465DF879
S315080041F0047B704780B485B000AF786039607B680F
S315080042001B68FB607B68404A934213D07B68B3F116
S31508004210804F0FD07B683D4A93420BD07B683C4A5F
S31508004220934207D07B683B4A934203D07B683A4A5D
S31508004230934208D1FB6823F07003FB603B685B6818
S31508004240FA681343FB607B682F4A93422BD07B683E
S31508004250B3F1804F27D07B682C4A934223D07B68E2
S315080042602B4A93421FD07B682A4A93421BD07B680D
S31508004270294A934217D07B68284A934213D07B6811
S31508004280274A93420FD07B68264A93420BD07B6815
S31508004290254A934207D07B68244A934203D07B6819
S315080042A0234A934208D1FB6823F44073FB603B68BA
S315080042B0DB68FA681343FB60FB6823F080023B68FF
S315080042C05B691343FB607B68FA681A603B689A6807
S315080042D07B68DA623B681A687B689A627B680A4A76
S315080042E0934203D07B680C4A934203D13B681A6910
S315080042F07B681A637B6801225A6100BF1437BD4682
S315080043005DF8047B704700BF0000014000040040D0
S3150800431000080040000C0040000401400040014035
S31508004320004401400048014000180040001C0040BD
S315080043300020004080B483B000AF786000BF0C371F
S31508004340BD465DF8047B704780B483B000AF7860E3
S3150800435000BF0C37BD465DF8047B704780B58AB050
S3150800436000AF78600023FB61FDF7C0FA574B1B6866
S31508004370002B01D100F00CF9554B1A687B681340E5
S31508004380002B40F08C807B68002B1CD008227B68B1
S3150800439013447B607B6803F00703002B13D07B680C
S315080043A023F0070308337B607B6803F00703002BC1
S315080043B009D04FF0500383F31188BFF36F8FBFF313
S315080043C04F8FFB60FEE77B68002B68D0414B1B686C
S315080043D07A689A4263D8404B3B623F4B1B687B62C4
S315080043E004E07B6A3B627B6A1B687B627B6A5A686D
S315080043F07B689A4203D27B6A1B68002BF1D1334B48
S315080044001B687A6A9A424AD03B6A1B680822134498
S31508004410FB617B6A1A683B6A1A607B6A5A687B6822
S31508004420D21A08235B009A421ED97A6A7B6813441B
S315080044307B617B6903F00703002B09D04FF050031B
S3150800444083F31188BFF36F8FBFF34F8FBB61FEE70E
S315080044507B6A5A687B68D21A7B695A607B6A7A6873
S315080044605A60786900F0F6F81A4B1A687B6A5B6836
S31508004470D31A184A1360174B1A68184B1B689A42C6
S3150800448003D2144B1B68154A13607B6A5A68104B93
S315080044901B681A437B6A5A607B6A00221A60FDF71A
S315080044A033FAFB6903F00703002B09D04FF05003DA
S315080044B083F31188BFF36F8FBFF34F8F3B61FEE71E
S315080044C0FB6918462837BD4680BD00BF4C4D002005
S315080044D0584D0020504D0020444D0020544D0020DA
S315080044E080B586B000AF78607B687B617B68002BFF
S315080044F046D008235B427A6913447B617B693B613A
S315080045003B695A68204B1B681340002B09D14FF0B2
S31508004510500383F31188BFF36F8FBFF34F8FBB60D0
S31508004520FEE73B691B68002B09D04FF0500383F365
S315080045301188BFF36F8FBFF34F8FFB60FEE73B69B0
S315080045405A68114B1B681340002B19D03B691B682E
S31508004550002B15D13B695A680B4B1B68DB431A4085
S315080045603B695A60FDF7C2F93B695A68074B1B68F5
S315080045701344064A1360386900F06CF8FDF7C4F96D
S3150800458000BF1837BD4680BD584D0020504D00204D
S3150800459080B485B000AF4FF47053BB60274BFB6007
S315080045A0FB6803F00703002B0CD0FB680733FB609E
S315080045B0FB6823F00703FB60BA68FB68D31A1F4A37
S315080045C01344BB60FB687B601D4A7B6813601C4B09
S315080045D000225A607A68BB681344FB600822FB68AD
S315080045E09B1AFB60FB6823F00703FB60FB68154A10
S315080045F01360144B1B6800225A60124B1B6800227A
S315080046001A607B683B603B68FA68D21A3B685A6056
S315080046100C4B1A683B681A603B685B680A4A136069
S315080046203B685B68094A1360094B4FF000421A6001
S3150800463000BF1437BD465DF8047B7047441100205F
S31508004640444D00204C4D0020544D0020504D002074
S31508004650584D002080B485B000AF7860284BFB60C9
S3150800466002E0FB681B68FB60FB681A687B689A4275
S31508004670F7D3FB68BB60FB685B68BA681A447B685B
S315080046809A4208D1FB685A687B685B681A44FB68DB
S315080046905A60FB687B607B68BB607B685B68BA684E
S315080046A01A44FB681B689A4218D1FB681A68154BAE
S315080046B01B689A420DD07B685A68FB681B685B6862
S315080046C01A447B685A60FB681B681A687B681A601C
S315080046D008E00C4B1A687B681A6003E0FB681A68E6
S315080046E07B681A60FA687B689A4202D0FB687A6827
S315080046F01A6000BF1437BD465DF8047B704700BFDB
S31508004700444D00204C4D002070B50F4E0F4D761BC2
S31508004710B61018BF002405D0013455F8043B984755
S31508004720A642F9D10A4E0B4D761B00F0D9F8B61001
S3150800473018BF002406D0013455F8043B9847A64212
S31508004740F9D170BD70BD00BF684900086849000806
S31508004750704900086849000870B4840746D0541E9A
S31508004760002A41D0CDB2034602E0621EE4B31446E5
S3150800477003F8015B9A07F8D1032C2ED9CDB245EA86
S3150800478005250F2C45EA054519D903F110022646D9
S31508004790103E0F2E42F8105C42F80C5C42F8085C9A
S315080047A042F8045C02F11002F2D8A4F1100222F0D9
S315080047B00F0204F00F041032032C13440DD91E46C1
S315080047C02246043A032A46F8045BFAD8221F22F046
S315080047D003020432134404F003042CB1C9B21C4486
S315080047E003F8011BA342FBD170BC7047144603466D
S315080047F0C2E700BF024B13B1024800F005B8704784
S315080048000000000015480008002301461A4618460D
S3150800481000F014B838B5074D074C2C1BA41005D06A
S31508004820013C55F8043D9847002CF9D1BDE83840BD
S3150800483000F05CB874490008704900082DE9F04793
S31508004840254C2568D5F84841064688469246994635
S31508004850C4B360681F2817DC431C76B104EB8005D7
S315080048600122C5F888A0D4F8881182401143022E87
S31508004870C4F88811C5F808911ED00230636044F860
S3150800488020800020BDE8F087144B03B34FF4C870AE
S31508004890AFF300800446D0B1D5F84831002780E848
S315080048A08800C5F8484138460123C4F88871C4F819
S315080048B08C71002EE1D0D1E7D4F88C110A43C4F8E4
S315080048C08C21DAE705F5A674C5F84841C1E74FF02B
S315080048D0FF30BDE8F08700BF5C4900080000000013
S315080048E0F8B500BFF8BC08BC9E467047F8B500BFCF
S30D080048F0F8BC08BC9E4670479F
S315080048F864656661756C745461736B0049444C450C
S3150800490800000000546D722053766300546D72518E
S3150800491800000000F8480008000000000000000039
S315080049280000000000000000000200001800000057
S315080049380000000000000000000000000000000061
S31508004948010203040607080900000000010203041F
S30D080049584300000010000020D6
S30D08004960F0B9FF7F0100000019
S30D08004968F5470008B501000837
S30908004970910100089B
S315080049740024F400AAAAAAAA100000000100000054
S3150800498400000000FC02002064030020CC03002081
S315080049940000000000000000000000000000000005
S315080049A400000000000000000000000000000000F5
S315080049B4000000005849000800000000000000003C
S315080049C400000000000000000000000000000000D5
S315080049D400000000000000000000000000000000C5
S315080049E400000000000000000000000000000000B5
S315080049F400000000000000000000000000000000A5
S31508004A040000000000000000000000000000000094
S31508004A140000000000000000000000000000000084
S31508004A240000000000000000010000000000000073
S31508004A340E33CDAB34126DE6ECDE05000B00000038
S31508004A440000000000000000000000000000000054
S31508004A540000000000000000000000000000000044
S31508004A640000000000000000000000000000000034
S31508004A740000000000000000000000000000000024
S7050800305171
